:020000020000FC
:0200000033C00B
:020004003EC0FC
:1000680002E00093690001E00DBB01E00CBB04E075
:1000780004B9222725B9789406C065D0E4E015B103
:100088001E2715B918951EE214B989E592E1A3E077
:1000980043D080E093E1A3E044D082E093E1A3E081
:1000A80044D01BD0C1D022D10C94560012E015B90F
:1000B800089516E015B9089514E015B9089516E0E5
:1000C80015B9089510E51CBD089514E51CBD0895E3
:1000D8002EBD0DB507FFFDCF0895F4DFEADF000060
:1000E800E5DF2CE0F5DF21E0F3DFE3DF0000DEDF12
:1000F80029E0EEDF2FEFECDFDCDF0000D7DF2AE0BE
:10010800E7DF2FE0E5DFD5DF0000D0DF2BE0E0DF21
:1001180023E0DEDFCEDF089520D03DD05AD009D0CD
:10012800089525D042D05FD008952BD048D066D00E
:100138000895CBDFC4DF0000BFDF2EE8C9DF27E06A
:10014800C7DFBDDF0895C1DFBADF0000B5DF2FE8E4
:10015800BFDF28ECBDDFB3DF0895B7DFB0DF0000F5
:10016800ABDF21E8B5DF282FB3DFA9DF0895ADDFC6
:10017800A6DF0000A1DF28E8ABDF282FA9DF9FDF7B
:100188000895A3DF9CDF000097DF2BE8A1DF282F6D
:100198009FDF95DF089599DF92DF00008DDF22E869
:1001A80097DF292F95DF8BDF08958FDF88DF000029
:1001B80083DF29E88DDF292F8BDF81DF089585DF35
:1001C8007EDF000079DF2CE883DF292F81DF77DFEE
:1001D80008957BDF74DF00006FDF23E879DF2A2FC3
:1001E80077DF6DDF089571DF6ADF000065DF2AE8D9
:1001F8006FDF2A2F20646CDF62DF089566DF5FDF20
:1002080000005ADF2DE864DF2A2F206461DF57DF02
:1002180008955BDF54DF00004FDF21E059DF2FEF47
:1002280057DF8EB54CDF089550DF49DF000044DF0B
:1002380022E04EDF2FEF4CDF9EB541DF089545DF0A
:100248003EDF000039DF23E043DF2FEF41DFAEB5AB
:1002580036DF089500E8DDDFE7DF34DF74E029DF0B
:10026800000024DF272F34DF282F200F31DF21DF84
:10027800829573E01BDF272F2BDF282F200F28DF25
:1002880018DF72E013DF272F23DF292F200F20DF4D
:1002980010DF929571E00ADF272F1ADF292F200F30
:1002A80017DF07DF08950EDF74E003DF0000FEDECE
:1002B800272F0EDF282F0CDFFCDE829573E0F6DE99
:1002C800272F06DF282F200F03DFF3DEF2DE0000E2
:1002D800EDDE22E0FDDE2FE7FBDEEBDE0000E6DEF2
:1002E80021E0F6DE2FE7F4DEE4DE0895EBDE72E0CF
:1002F800E0DE0000DBDE272FEBDE292FE9DED9DE8A
:10030800929571E0D3DE272FE3DE292FE1DED1DEDF
:10031800D0DE0000CBDE24E0DBDE2FE7D9DEC9DE4D
:100328000000C4DE23E0D4DE2FE7D2DEC2DE08956B
:00000001FF
