:020000020000FC
:0200000016C028
:02000400E0C159
:10002C009EC103E00093690001E00DBB01E00CBB35
:10003C000FEF04B917EF1AB9C0E0D0E010EF17B901
:10004C0060E170E2E0E4F0E880E392E1A1E0F6D157
:10005C0080E092E1A2E0F7D180E092E1A3E0F7D159
:10006C00CED10AE712E1009389001093880002E0D8
:10007C0000936F0008E00093810078940360009374
:10008C008100CC27DD27002700C0D8D0C03011F468
:10009C00D03029F4309930D00027C01304C03199E6
:1000AC000E94880000C0C13009F001C034D0C230B9
:1000BC0009F001C03FD0C33009F001C04BD0D130A2
:1000CC0009F001C057D0D23009F001C062D0D33052
:1000DC0009F001C06DD0D43009F001C078D0D53012
:1000EC0009F001C083D0D63009F001C08ED0D730D2
:1000FC0009F001C099D0C9CF3099FECFC3950E94A9
:10010C00E40108953199FECFD3950E94E40108953E
:10011C0000270BB908953099FECFFADF17D2329928
:10012C00B9D03399CFD0C9D173D2309BF8CF46D147
:10013C00E3DF08953099FECFEBDFFDD146D2329943
:10014C00B1D03399C7D09BD140D2309BF8CF36D1A8
:10015C00D3DF08953099FECFDBDFA1E0A5B932994A
:10016C00A9D03399C0D0C7D1A5B9309BF8CF26D12F
:10017C00C3DF08953199FECFCBDFE8D132998AD015
:10018C003399A0D09AD144D2319BF8CF17D1BADF92
:10019C0008953199FECFBCDFD9D132997BD03399F8
:1001AC0091D08BD135D2319BF8CF08D1ABDF0895EC
:1001BC003199FECFADDFCAD132996CD0339982D050
:1001CC007CD126D2319BF8CFF9D09CDF08953199A0
:1001DC00FECF9EDFBBD132995DD0339973D06DD1F8
:1001EC0017D2319BF8CFEAD08DDF08953199FECF2D
:1001FC008FDFACD132994ED0339964D05ED108D216
:10020C00319BF8CFDBD07EDF08953199FECF80DFB4
:10021C009DD132993FD0339955D04FD1F9D1319BE3
:10022C00F8CFCCD06FDF08953199FECF319BFECF44
:10023C00C5D0089529D008952AD00895A5B9089558
:10024C005C9A08951BB116271BB908955C9A1BB1D3
:10025C0017271BB908955E9A08951BB11E271BB969
:10026C0008955E9A1BB117271BB908955F9A0895DC
:10027C001BB11F271BB908955F9A1BB117271BB918
:10028C000895DD27DBB90895CC27CBB90895DD2778
:10029C00DBB90895933211F02FD001C090E08ED0CD
:1002AC008DD00895893511F033D001C090E086D0FF
:1002BC0085D00895A73011F0A39501C091E07ED0B0
:1002CC007DD008953399FECF903011F02ED001C01F
:1002DC0093E208953399FECF803011F033D001C0F2
:1002EC0099E56CD008953399FECFA13011F0AA9501
:1002FC0001C097E063D00895292F26952695269561
:10030C002695203911F0939502C007E0900F0895BF
:10031C00282F2695269526952695203911F083951C
:10032C0003C000E1800F89500895292F269526954A
:10033C0026952695203011F09A9503C0905109E02E
:10034C00900F0895282F26952695269526952030D2
:10035C0011F08A9503C0805109E0800F0895D130C7
:10036C0009F001C078DFD23009F001C076DFD3305C
:10037C0009F001C076DFD43009F001C077DFD53049
:10038C0009F001C075DFD63009F001C075DFD73038
:10039C0009F002C07CDF75DFC13009F001C050DF0D
:1003AC00C23009F001C04EDFC33009F001C04EDF8E
:1003BC00C43009F001C068DF189518952AE03FEFAA
:1003CC004FEF4A95F1F73A95E1F72A95D1F7089551
:1003DC0012E015B9089516E015B9089514E015B991
:1003EC00089516E015B9089510E51CBD089514E59F
:1003FC001CBD08952EBD0DB507FFFDCF0895F4DF8C
:10040C00EADF0000E5DF2CE0F5DF21E0F3DFE3DFDE
:10041C000000DEDF29E0EEDF2FEFECDFDCDF000099
:10042C00D7DF2AE0E7DF2FE0E5DFD5DF0000D0DF04
:10043C002BE0E0DF23E0DEDFCEDF089520D03DD0DF
:10044C005AD009D0089525D042D05FD008952BD032
:10045C0048D066D00895CBDFC4DF0000BFDF2EE8A4
:10046C00C9DF27E0C7DFBDDF0895C1DFBADF0000B9
:10047C00B5DF2FE8BFDF28ECBDDFB3DF0895B7DFB2
:10048C00B0DF0000ABDF21E8B5DF282FB3DFA9DF39
:10049C000895ADDFA6DF0000A1DF28E8ABDF282F31
:1004AC00A9DF9FDF0895A3DF9CDF000097DF2BE817
:1004BC00A1DF282F9FDF95DF089599DF92DF0000E1
:1004CC008DDF22E897DF292F95DF8BDF08958FDFF3
:1004DC0088DF000083DF29E88DDF292F8BDF81DFA8
:1004EC00089585DF7EDF000079DF2CE883DF292F7C
:1004FC0081DF77DF08957BDF74DF00006FDF23E897
:10050C0079DF2A2F77DF6DDF089571DF6ADF000056
:10051C0065DF2AE86FDF2A2F20646CDF62DF089525
:10052C0066DF5FDF00005ADF2DE864DF2A2F2064CE
:10053C0061DF57DF08955BDF54DF00004FDF21E000
:10054C0059DF2FEF57DF8EB54CDF089550DF49DFB1
:10055C00000044DF22E04EDF2FEF4CDF9EB541DF81
:10056C00089545DF3EDF000039DF23E043DF2FEF46
:10057C0041DFAEB536DF089500E8DDDFE7DF34DFBD
:10058C0014E029DF000024DF212F34DF282F200F77
:10059C0031DF21DF829513E01BDF212F2BDF282F8A
:1005AC00200F28DF18DF12E013DF212F23DF292F84
:1005BC00200F20DF10DF929511E00ADF212F1ADFC8
:1005CC00292F200F17DF07DF08950EDF14E003DF5C
:1005DC000000FEDE212F0EDF282F0CDFFCDE8295C3
:1005EC0013E0F6DE212F06DF282F200F03DFF3DECA
:1005FC00F2DE0000EDDE22E0FDDE2FE7FBDEEBDEBF
:10060C000000E6DE21E0F6DE2FE7F4DEE4DE0895FE
:10061C00EBDE12E0E0DE0000DBDE212FEBDE292F2B
:10062C00E9DED9DE929511E0D3DE212FE3DE292F0E
:10063C00E1DED1DED0DE0000CBDE24E0DBDE2FE716
:10064C00D9DEC9DE0000C4DE23E0D4DE2FE7D2DE23
:04065C00C2DE08955D
:00000001FF
