:020000020000FC
:100000001EE214B910E51CBD09D027D03FD066C050
:1000100012E015B9089516E015B90895F9DF2CE03E
:1000200043D021E041D0F7DFF3DF29E03DD02FEFCF
:100030003BD0F1DFEDDF2AE037D02FE035D0EBDF2A
:10004000E7DF2BE031D023E02FD0E5DF089514E087
:1000500015B9089516E015B90895F9DF2EE824D0F2
:1000600028E522D0F7DFF3DF22E81ED027E11CD0FD
:10007000F1DFEDDF21E818D028E416D0EBDFE7DF71
:1000800023E812D025E010D0E5DF0895E0DF22E07C
:100090000BD007D0DFDFBCDF21E006D0282F04D053
:1000A000BADFFFCF8EB508952EBD00C00DB507FF96
:1000B000FDCF08956A3859F000C0AADF272FF4DF7A
:1000C000262FF2DFA8DF743029F07395F6CF60E8B1
:1000D00071E0F0CF639571E04CD0ECCFFFCF98DFAB
:1000E00021E0E2DF21EFE0DF96DF92DF22E0DCDFDC
:1000F00022EFDADF90DF8CDF23E0D6DF23EFD4DFDF
:100100008ADF86DF24E0D0DF24EFCEDF84DFE6CF96
:1001100002E006BB20910000309100002093850092
:100120003093840000EC0093800008E813E1009312
:100130008800109389001DE01093810002E0009375
:100140006F000895B19BFECF0895209184003091F7
:100150008500409184005091850020938500309364
:10016000840010E0109381000895D2DFEBDFEDDF13
:10017000089500E810E89AE09A959030E9F71A950A
:0C0180001030C9F70A950030A9F7089567
:00000001FF
