:020000020000FC
:0200000016C028
:0200080078C2BC
:10002C0038C208E00093690002E00DBB17EF1AB963
:10003C00C0E0D0E010EF17B960E130E2E0E4F0E8A6
:10004C001FEA14B989E593E2A3E092D280E090E034
:10005C00A4E093D281E090E0A4E093D26AD20AE7C4
:10006C0012E1009389001093880002E000936F0066
:10007C0008E0009381007894036000938100CC2702
:10008C00DD27002700C051D31CD310D3ABB991D2BC
:10009C00093C19F00A3C31F00DC0459A29D2459A19
:1000AC007ED2F1CF459824D223D222D221D24598A8
:1000BC0076D2EDCFC03011F4D03029F4309930D055
:1000CC000027C01304C031990E949C0000C0C130AD
:1000DC0009F001C042D0C23009F001C04DD0C3308C
:1000EC0009F001C058D0D13009F001C068D0D2302D
:1000FC0009F001C073D0D33009F001C07ED0D430E8
:10010C0009F001C08DD0D53009F001C099D0D6309E
:10011C0009F001C0A4D0D73009F001C0B3D0B3CFDF
:10012C003099FECFC3950E947E0208953199FECF7F
:10013C00D3950E947E02089500270BB90895A0D292
:10014C00AAD2B4D2BED2A8D0D3D110E0309B139592
:10015C00319B1395103099F308953099FECFECDF55
:10016C009AD20FD3C5D13299C3D03399DDD0309BFD
:10017C00F7CFBED1D5DF08953099FECFDDDF80D229
:10018C00DCD2B6D13299BCD03399D6D0309BF7CFD4
:10019C00AFD1C6DF08953099FECFCEDFA1E050D2AB
:1001AC0085D2ABB9BAD280D0A3D1A2D13299B0D07A
:1001BC003399CAD0309BF4CF9BD1B2DF08953199DB
:1001CC00FECFBADF68D2DDD293D13299C8D0339941
:1001DC00FCD0319BF8CF8CD1A9DF08953199FECF9B
:1001EC00ABDF4ED2AAD284D13299C9D03399FDD08B
:1001FC00319BF8CF7DD19ADF08953199FECF9CDFEA
:10020C00A1E028D2ABB989D25AD072D171D132992E
:10021C00C6D03399FAD0319BF5CF6AD187DF0895D8
:10022C003199FECF89DF37D280D2ABD261D13299EE
:10023C009ED03399D2D0319BF7CF5AD177DF089526
:10024C003199FECF79DF1CD278D252D132999FD01E
:10025C003399D3D0319BF8CF4BD168DF08953199C6
:10026C00FECF6ADFA1E001D2ABB957D233D040D177
:10027C003FD132999FD03399D4D0319BF5CF38D11F
:10028C0055DF08953199FECF319BFECF31D10895C2
:10029C0029D008952AD00895ABB908955C9A089591
:1002AC00BBB1B627BBB908955C9ABBB1B327BBB938
:1002BC0008955E9A0895BBB1BE27BBB908955E9AA6
:1002CC00BBB1B327BBB908955F9A0895BBB1BF27E3
:1002DC00BBB908955F9ABBB1B327BBB90895DD27AD
:1002EC00DBB90895CC27CBB90895DD27DBB9089588
:1002FC00FFD0933211F0A1D001C090E083D10895CA
:10030C00F7D0893511F0A4D001C080E05DD10895FB
:10031C00EFD0EED05A2F5F70573011F0A39501C07B
:10032C00A1E0E6D08DD10895E3D0903011F09BD0B0
:10033C0001C093E267D10895DBD0803011F09ED0DC
:10034C0001C089E541D10895D3D0D2D05A2F5F7026
:10035C00513011F0AA9501C0A7E072D10895C8D010
:10036C00933211F06AD001C090E056D10895C0D0FC
:10037C00933211F062D001C090E058D10895B8D0FA
:10038C00893511F065D001C080E028D10895B0D036
:10039C00893511F05DD001C080E02AD10895A8D034
:1003AC00A7D05A2F5F70573011F0A39501C0A1E070
:1003BC0051D108959DD09CD05A2F5F70573011F0B9
:1003CC00A39501C0A1E051D1089592D0903011F0C5
:1003DC004AD001C093E220D108958AD0903011F018
:1003EC0042D001C093E222D1089582D0803011F026
:1003FC0045D001C089E5F2D008957AD0803011F053
:10040C003DD001C089E5F4D0089572D071D05A2F37
:10041C005F70513011F0AA9501C0A7E01BD168D0D4
:10042C00089566D065D05A2F5F70513011F0AA959F
:10043C0001C0A7E01AD15CD00895592F5F705930D4
:10044C0011F0939503C000E1900F995051D008958D
:10045C00582F5F70593011F0839503C000E1800F65
:10046C00895046D00895592F5F70503011F09A95ED
:10047C0003C0905109E0900F3BD00895582F5F7046
:10048C00503011F08A9503C0805109E0800F30D0B4
:10049C000895D13009F001C00CDFD23009F001C051
:1004AC000ADFD33009F001C00ADFD43009F001C0F3
:1004BC000BDFD53009F001C009DFD63009F001C0DF
:1004CC0009DFD73009F002C010DF09DFC13009F0B5
:1004DC0001C0E4DEC23009F001C0E2DEC33009F035
:1004EC0001C0E2DEC43009F001C0FCDE189518959D
:1004FC001AE02FEF4FEF4A95F1F72A95E1F71A958D
:10050C00D1F7089512E015B9089516E015B90895BC
:10051C0014E015B9089516E015B9089510E51CBD41
:10052C00089514E51CBD08952EBD0DB507FFFDCF34
:10053C000895F4DFEADF0000E5DF2CE0F5DF21E0D1
:10054C00F3DFE3DF0000DEDF29E0EEDF2FEFECDF8F
:10055C00DCDF0000D7DF2AE0E7DF2FE0E5DFD5DFC7
:10056C000000D0DF2BE0E0DF23E0DEDFCEDF0895FC
:10057C002BD048D065D009D0089530D04DD06AD05A
:10058C00089536D053D071D00895CBDFC4DF00006E
:10059C00BFDF2EE8C9DF27E0C7DFBDDF0895C1DF6D
:1005AC00BADF0000B5DF2FE8BFDF28ECBDDFB3DF1B
:1005BC000895B7DFB0DF0000ABDF2FE0B5DF2FEF22
:1005CC00B3DF0EB5A8DF0895ACDFA5DF0000A0DF18
:1005DC0021E8AADF282FA8DF9EDF0895A2DF9BDF8A
:1005EC00000096DF28E8A0DF282F9EDF94DF089517
:1005FC0098DF91DF00008CDF2BE896DF282F94DF4B
:10060C008ADF08958EDF87DF000082DF22E88CDF2F
:10061C00292F8ADF80DF089584DF7DDF000078DFFB
:10062C0029E882DF292F80DF76DF08957ADF73DFF8
:10063C0000006EDF2CE878DF292F76DF6CDF089561
:10064C0070DF69DF000064DF23E86EDF2A2F6CDFC8
:10065C0062DF089566DF5FDF00005ADF2AE864DF9F
:10066C002A2F206461DF57DF08955BDF54DF000021
:10067C004FDF2DE859DF2A2F206456DF4CDF089519
:10068C0050DF49DF000044DF21E04EDF2FEF4CDF6D
:10069C008EB541DF089545DF3EDF000039DF22E0F3
:1006AC0043DF2FEF41DF9EB536DF08953ADF33DFAE
:1006BC0000002EDF23E038DF2FEF36DFAEB52BDF67
:1006CC00089500E8DDDFE7DFF1DF28DF74E01DDFF0
:1006DC00000018DF272F28DF282F200F25DF15DF3C
:1006EC00829573E00FDF272F1FDF282F200F1CDFD1
:1006FC000CDF829572E006DF272F16DF292F200FE3
:10070C0013DF03DF929571E0FDDE272F0DDF292F1C
:10071C00200F0ADFFADE9295089500DFF3DE2CE05D
:10072C0003DF20E001DFF1DE0895F8DEEBDE2CE0E4
:10073C00FBDE21E0F9DEE9DE0895F0DE74E0E5DEB3
:10074C000000E0DE272FF0DE282FEEDEDEDE8295C5
:10075C0073E0D8DE272FE8DE282F200FE5DED5DE6C
:10076C008295D3DE0000CEDE22E0DEDE2FE7DCDE7B
:10077C00CCDE0000C7DE21E0D7DE2FE7D5DEC5DEFC
:10078C000895CCDE72E0C1DE0000BCDE272FCCDE8B
:10079C00292FCADEBADE929571E0B4DE272FC4DEB3
:1007AC00292FC2DEB2DE9295B0DE0000ABDE24E073
:1007BC00BBDE2FE7B9DEA9DE0000A4DE23E0B4DE49
:0807CC002FE7B2DEA2DE089562
:00000001FF
