:020000020000FC
:1000000000E400937C0013E010937A00106C1093CE
:100010007A0037D040917A0044FD01C0FBCFB09107
:100020007800C09179009AE0A1E0DFEFEFEEF3E015
:1000300028D080E0B1130196C7130196803051F1AA
:100040000CD01D1319C01AC02A0F322F2913F1CF5B
:100050000CD04913EECF0DD0ECCF80E01E130196EB
:100060007F1301968030B1F00895222733274A0F7D
:10007000089544275A0F08951A0FE6CF10E07A0F1B
:10008000E3CF002711272227332744275527662748
:040090007727089531
:00000001FF
