:020000020000FC
:100000001EE214B989E592E1A3E03CD01CD07DD07A
:100010000C94070012E015B9089516E015B908957B
:1000200014E015B9089516E015B9089510E010E52B
:100030001CBD089510E014E51CBD08952EBD0DB53E
:1000400007FFFDCF0895F2DFE8DF0000E3DF2CE0DB
:10005000F5DF21E0F3DFE1DF0000DCDF29E0EEDFA8
:100060002FEFECDFDADF0000D5DF2AE0E7DF2FE05B
:10007000E5DFD3DF0000CEDF2BE0E0DF23E0DEDFD3
:10008000CCDF089503D00CD015D00895D3DFCBDF9B
:100090000000C6DF21E8D2DF282FD0DFC4DF0895BB
:1000A000C9DFC1DF0000BCDF22E8C8DF292FC6DFBF
:1000B000BADF0895BFDFB7DF0000B2DF23E8BEDF9D
:1000C0002A2FBCDFB0DF0895B5DFADDF0000A8DF69
:1000D00021E0B4DF2FEFB2DF8EB5A5DF0895AADFF0
:1000E000A2DF00009DDF22E0A9DF2FEFA7DF9EB592
:1000F0009ADF08959FDF97DF000092DF23E09EDF05
:100100002FEF9CDFAEB58FDF0895DEDFE8DF8EDFF7
:1001100074E083DF00007EDF272F90DF282F8EDF43
:100120007CDF869586958695869573E073DF272F0D
:1001300085DF282F83DF71DF72E06CDF272F7EDF02
:10014000292F7CDF6ADF969596959695969571E0B6
:0E01500061DF272F73DF292F71DF5FDF089536
:00000001FF
