:020000020000FC
:0200000016C028
:02000400BAC17F
:10002C0078C103E00093690001E00DBB01E00CBB5B
:10003C000FEF04B917EF1AB9C0E0D0E010EF17B901
:10004C0060E130E2E0E4F0E81EE214B989E592E107
:10005C00A3E0CED180E093E1A3E0CFD182E093E1A5
:10006C00A3E0CFD1A6D10AE712E100938900109347
:10007C00880002E000936F0008E000938100789400
:10008C00036000938100CC27DD27002700C04ED2EF
:10009C00C03011F4D03029F4309930D00027C0137F
:1000AC0004C031990E948A0000C0C13009F001C01F
:1000BC0042D0C23009F001C04AD0C33009F001C0AF
:1000CC0051D0D13009F001C05DD0D23009F001C05F
:1000DC0061D0D33009F001C065D0D43009F001C033
:1000EC0069D0D53009F001C06DD0D63009F001C00F
:1000FC0071D0D73009F001C075D0C9CF3099FECF7F
:10010C00C3950E94BE0108953199FECFD3950E94EC
:10011C00BE01089500270BB90895E7D1F1D1FBD1A9
:10012C0005D26AD025D110E0309B1395319B1395E5
:10013C00103099F308953099FECFECDFE1D1E0D186
:10014C0060D216D1309BFBCF13D1D8DF08953099F4
:10015C00FECFE0DFCAD132D20BD1309BFBCF08D11E
:10016C00CDDF08953099FECFD5DFA1E09ED1D3D15C
:10017C001BB11A271BB903D2FBD0309BF8CFF8D098
:10018C00BDDF08953199FECFC5DF319BFECFF0D096
:10019C00BBDF08953199FECFBDDF319BFECFE8D098
:1001AC00B3DF08953199FECFB5DF319BFECFE0D0A0
:1001BC00ABDF08953199FECFADDF319BFECFD8D0A8
:1001CC00A3DF08953199FECFA5DF319BFECFD0D0B0
:1001DC009BDF08953199FECF9DDF319BFECFC8D0B8
:1001EC0093DF08953199FECF319BFECFC1D0089596
:1001FC0029D008952AD00895A5B908955C9A089538
:10020C00BBB1B627BBB908955C9ABBB1B327BBB9D8
:10021C0008955E9A0895BBB1BE27BBB908955E9A46
:10022C00BBB1B327BBB908955F9A0895BBB1BF2783
:10023C00BBB908955F9ABBB1B327BBB90895DD274D
:10024C00DBB90895CC27CBB90895DD27DBB9089528
:10025C009EE00895893511F035D001C090E088D02A
:10026C0087D00895A73011F0A39501C091E080D0FC
:10027C007FD008953399FECF903011F030D001C06B
:10028C0093E208953399FECF803011F035D001C040
:10029C0099E56ED008953399FECFA13011F0AA954F
:1002AC0001C097E065D0089510EF9395592F5295A2
:1002BC005123503A09F003C000E1900F995058D0E7
:1002CC0057D00895182F1695169516951695103922
:1002DC0011F0839503C000E1800F89500895192F08
:1002EC001695169516951695103011F09A9503C023
:1002FC00905109E0900F0895182F169516951695A4
:10030C001695103011F08A9503C0805109E0800FCA
:10031C000895D13009F001C07CDFD23009F001C062
:10032C007ADFD33009F001C07ADFD43009F001C094
:10033C007BDFD53009F001C079DFD63009F001C080
:10034C0079DFD73009F002C080DF79DFC13009F0E6
:10035C0001C054DFC23009F001C052DFC33009F0D4
:10036C0001C052DFC43009F001C06CDF189518953C
:10037C001AE02FEF4FEF4A95F1F72A95E1F71A950E
:10038C00D1F7089512E015B9089516E015B908953E
:10039C0014E015B9089516E015B9089510E51CBDC3
:1003AC00089514E51CBD08952EBD0DB507FFFDCFB6
:1003BC000895F4DFEADF0000E5DF2CE0F5DF21E053
:1003CC00F3DFE3DF0000DEDF29E0EEDF2FEFECDF11
:1003DC00DCDF0000D7DF2AE0E7DF2FE0E5DFD5DF49
:1003EC000000D0DF2BE0E0DF23E0DEDFCEDF08957E
:1003FC0020D03DD05AD009D0089525D042D05FD01E
:10040C0008952BD048D066D00895CBDFC4DF000010
:10041C00BFDF2EE8C9DF27E0C7DFBDDF0895C1DFEE
:10042C00BADF0000B5DF2FE8BFDF28ECBDDFB3DF9C
:10043C000895B7DFB0DF0000ABDF21E8B5DF282F70
:10044C00B3DFA9DF0895ADDFA6DF0000A1DF28E848
:10045C00ABDF282FA9DF9FDF0895A3DF9CDF00000F
:10046C0097DF2BE8A1DF282F9FDF95DF089599DF19
:10047C0092DF00008DDF22E897DF292F95DF8BDFDD
:10048C0008958FDF88DF000083DF29E88DDF292FB7
:10049C008BDF81DF089585DF7EDF000079DF2CE8BC
:1004AC0083DF292F81DF77DF08957BDF74DF000086
:1004BC006FDF23E879DF2A2F77DF6DDF089571DF97
:1004CC006ADF000065DF2AE86FDF2A2F20646CDF0B
:1004DC0062DF089566DF5FDF00005ADF2DE864DF1E
:1004EC002A2F206461DF57DF08955BDF54DF0000A3
:1004FC004FDF21E059DF2FEF57DF8EB54CDF08952A
:10050C0050DF49DF000044DF22E04EDF2FEF4CDFED
:10051C009EB541DF089545DF3EDF000039DF23E063
:10052C0043DF2FEF41DFAEB536DF089500E8DDDFA6
:10053C00E7DF34DF74E029DF000024DF272F34DF0E
:10054C00282F200F31DF21DF829573E01BDF272F4F
:10055C002BDF282F200F28DF18DF72E013DF272F67
:10056C0023DF292F200F20DF10DF929571E00ADFA7
:10057C00272F1ADF292F200F17DF07DF089505DF3C
:10058C00000000DF24E010DF2FE70EDFFEDE0000AE
:10059C00F9DE23E009DF2FE707DFF7DEF6DE0000E8
:1005AC00F1DE22E001DF2FE7FFDEEFDE0000EADE06
:1005BC0021E0FADE2FE7F8DEE8DE0895EFDE74E0E6
:1005CC00E4DE0000DFDE272FEFDE282FEDDEDDDEA0
:1005DC00829573E0D7DE272FE7DE282F200FE4DE8D
:1005EC00D4DED3DE0000CEDE22E0DEDE2FE7DCDE62
:1005FC00CCDE0000C7DE21E0D7DE2FE7D5DEC5DE7E
:10060C000895CCDE72E0C1DE0000BCDE272FCCDE0C
:10061C00292FCADEBADE929571E0B4DE272FC4DE34
:10062C00292FC2DEB2DEB1DE0000ACDE24E0BCDE7F
:10063C002FE7BADEAADE0000A5DE23E0B5DE2FE749
:06064C00B3DEA3DE0895F9
:00000001FF
