:020000020000FC
:0200000016C028
:0200040048C1F1
:10002C0007C103E00093690001E00DBB01E00CBBCC
:10003C000FEF04B917EF1AB9C0E0D0E010EF17B901
:10004C0060E170E2E0E4F0E880E392E1A1E05ED1EF
:10005C0080E092E1A2E05FD180E092E1A3E05FD189
:10006C0036D10AE712E1009389001093880002E070
:10007C0000936F0008E00093810078940360009374
:10008C008100CC27DD2700C0A6D0309910D0319943
:10009C000E946700D13009F001C01EC0D23009F0B7
:1000AC0001C022D0D33009F001C026D0EDCF309959
:1000BC00FECFC3950E944C010895CC270E944C01A1
:1000CC0008953199FECFD3950895DD270E944C01F8
:1000DC00089500270BB908953099FECFFADF309BB5
:1000EC00FECFD4D0E4DFDACF3099FECFF2DF309BF5
:1000FC00FECFCCD0DCDF08953099FECFEADF309B09
:10010C00FECFC4D0D4DF089573D00895933211F08C
:10011C002FD001C090E0BAD0B9D00895893511F034
:10012C0033D001C090E0B2D0B1D00895A73011F017
:10013C00A39501C091E0AAD0A9D008953399FECF20
:10014C00903011F02ED001C093E208953399FECF78
:10015C00803011F033D001C099E598D008953399CF
:10016C00FECFA13011F0AA9501C097E08FD0089571
:10017C00292F2695269526952695203911F09395AD
:10018C0002C007E0900F0895282F269526952695F6
:10019C002695203911F0839503C000E1800F89501A
:1001AC000895292F2695269526952695203011F011
:1001BC009A9503C0905109E0900F0895282F269529
:1001CC00269526952695203011F08A9503C08051EE
:1001DC0009E0800F0895A5B908955C9A08951BB1A4
:1001EC0016271BB908955C9A1BB117271BB90895E4
:1001FC00CC27CBB908953199FECF5E9A08953199E9
:10020C00FECF1BB11E271BB908955E9A1BB1172791
:10021C001BB908955F9A08951BB11F271BB9089548
:10022C005F9A1BB117271BB90895DD27DBB9089519
:10023C00C13009F001C0DFDFC23009F001C0DFDFDF
:10024C00C33009F001C0E1DFC43021F301C0E2DFAB
:10025C00C53009F001C0E0DFC63009F001C0E0DFB5
:10026C00C73009F001C0E1DFD13009F001C0B5DFC2
:10027C00D23009F001C0B3DFD33009F001C0B3DFD5
:10028C00D43009F001C0B4DF189518952AE03FEF7F
:10029C004FEF4A95F1F73A95E1F72A95D1F7089582
:1002AC0012E015B9089516E015B9089514E015B9C2
:1002BC00089516E015B9089510E51CBD089514E5D0
:1002CC001CBD08952EBD0DB507FFFDCF0895F4DFBD
:1002DC00EADF0000E5DF2CE0F5DF21E0F3DFE3DF10
:1002EC000000DEDF29E0EEDF2FEFECDFDCDF0000CB
:1002FC00D7DF2AE0E7DF2FE0E5DFD5DF0000D0DF36
:10030C002BE0E0DF23E0DEDFCEDF089520D03DD010
:10031C005AD009D0089525D042D05FD008952BD063
:10032C0048D066D00895CBDFC4DF0000BFDF2EE8D5
:10033C00C9DF27E0C7DFBDDF0895C1DFBADF0000EA
:10034C00B5DF2FE8BFDF28ECBDDFB3DF0895B7DFE3
:10035C00B0DF0000ABDF21E8B5DF282FB3DFA9DF6A
:10036C000895ADDFA6DF0000A1DF28E8ABDF282F62
:10037C00A9DF9FDF0895A3DF9CDF000097DF2BE848
:10038C00A1DF282F9FDF95DF089599DF92DF000012
:10039C008DDF22E897DF292F95DF8BDF08958FDF24
:1003AC0088DF000083DF29E88DDF292F8BDF81DFD9
:1003BC00089585DF7EDF000079DF2CE883DF292FAD
:1003CC0081DF77DF08957BDF74DF00006FDF23E8C8
:1003DC0079DF2A2F77DF6DDF089571DF6ADF000088
:1003EC0065DF2AE86FDF2A2F20646CDF62DF089557
:1003FC0066DF5FDF00005ADF2DE864DF2A2F206400
:10040C0061DF57DF08955BDF54DF00004FDF21E031
:10041C0059DF2FEF57DF8EB54CDF089550DF49DFE2
:10042C00000044DF22E04EDF2FEF4CDF9EB541DFB2
:10043C00089545DF3EDF000039DF23E043DF2FEF77
:10044C0041DFAEB536DF089500E8DDDFE7DF34DFEE
:10045C0014E029DF000024DF212F34DF282F200FA8
:10046C0031DF21DF829513E01BDF212F2BDF282FBB
:10047C00200F28DF18DF12E013DF212F23DF292FB5
:10048C00200F20DF10DF929511E00ADF212F1ADFF9
:10049C00292F200F17DF07DF08950EDF14E003DF8D
:1004AC000000FEDE212F0EDF282F0CDFFCDE8295F4
:1004BC0013E0F6DE212F06DF282F200F03DFF3DEFB
:1004CC00F2DE0000EDDE22E0FDDE2FE7FBDEEBDEF0
:1004DC000000E6DE21E0F6DE2FE7F4DEE4DE089530
:1004EC00EBDE12E0E0DE0000DBDE212FEBDE292F5D
:1004FC00E9DED9DE929511E0D3DE212FE3DE292F40
:10050C00E1DED1DED0DE0000CBDE24E0DBDE2FE747
:10051C00D9DEC9DE0000C4DE23E0D4DE2FE7D2DE54
:04052C00C2DE08958E
:00000001FF
