:020000020000FC
:0200000016C028
:0200040066C1D3
:10002C0029C103E00093690001E00DBB01E00CBBAA
:10003C000FEF04B917EF1AB9222725B9C0E0D0E0A9
:10004C0010EF17B960E170E2E0E4F0E880E392E1D0
:10005C00A1E07AD180E092E1A2E07BD180E092E154
:10006C00A3E07BD152D10AE712E1009389001093EF
:10007C00880002E000936F0008E000938100789400
:10008C0003600093810000C0FDD1BFD031990FD027
:10009C00309915D0C13009F001C01CD0C23009F024
:1000AC0001C029D0C33009F001C036D0EDCFC395C3
:1000BC000E946A010895CC270E946A010895D39585
:1000CC000E946A01E1CFDD270E946A010895002792
:1000DC000BB908953099FECFFADFBED11FD23299F9
:1000EC002BD0339943D06FD1FCD018D2309BF7CFA3
:1000FC00EBD0E5DF08953099FECFE9DFA2D1EBD14B
:10010C00329923D033993BD040D1EBD0E4D1309B02
:10011C00F7CFDAD0D4DF08953099FECFD8DFA1E045
:10012C00A5B932991BD0339933D06BD1A5B9309B7B
:10013C00F8CFCAD0C8DF08953299FECF933211F0B0
:10014C0030D001C090E0C0D008953299FECF8935EF
:10015C0011F034D001C090E0B7D00895A73011F061
:10016C00A39501C091E0B0D0AFD008953399FECFE4
:10017C00903011F030D001C093E2A6D0089533999D
:10018C00FECF803011F034D001C099E59DD0089598
:10019C003399FECFA13011F0AA9501C097E094D00D
:1001AC000895292F2695269526952695203911F008
:1001BC00939503C000E1900F99500895282F269530
:1001CC00269526952695203911F0839503C000E1DC
:1001DC00800F89500895292F2695269526952695CA
:1001EC00203011F09A9503C0905109E0900F0895BA
:1001FC00282F2695269526952695203011F08A9540
:10020C0003C0805109E0800F0895A5B908955C9A48
:10021C0008951BB116271BB908955C9A1BB11727BB
:10022C001BB908953199FECF5E9A08953199FECF8E
:10023C001BB11E271BB908953199FECF5E9A289ADF
:10024C001BB117271BB908953199FECF5F9A0895FA
:10025C003199FECF1BB11F271BB908953199FECFE1
:10026C005F9A1BB117271BB908953199FECFDD2773
:10027C00DBB90895C13009F001C0D4DFC23009F0F8
:10028C0001C0D4DFC33009F001C0D6DFC430E1F2C5
:10029C0001C0DADFC53009F001C0DADFC63009F081
:1002AC0001C0DCDFC73009F001C0DFDFD13009F05D
:1002BC0001C0ADDFD23009F001C0ABDFD33009F0A3
:1002CC0001C0ABDF189518952AE03FEF4FEF4A9528
:1002DC00F1F73A95E1F72A95D1F7089512E015B99F
:1002EC00089516E015B9089514E015B9089516E0AF
:1002FC0015B9089510E51CBD089514E51CBD0895AD
:10030C002EBD0DB507FFFDCF0895F4DFEADF000029
:10031C00E5DF2CE0F5DF21E0F3DFE3DF0000DEDFDB
:10032C0029E0EEDF2FEFECDFDCDF0000D7DF2AE087
:10033C00E7DF2FE0E5DFD5DF0000D0DF2BE0E0DFEB
:10034C0023E0DEDFCEDF089520D03DD05AD009D097
:10035C00089525D042D05FD008952BD048D066D0D8
:10036C000895CBDFC4DF0000BFDF2EE8C9DF27E034
:10037C00C7DFBDDF0895C1DFBADF0000B5DF2FE8AE
:10038C00BFDF28ECBDDFB3DF0895B7DFB0DF0000BF
:10039C00ABDF21E8B5DF282FB3DFA9DF0895ADDF90
:1003AC00A6DF0000A1DF28E8ABDF282FA9DF9FDF45
:1003BC000895A3DF9CDF000097DF2BE8A1DF282F37
:1003CC009FDF95DF089599DF92DF00008DDF22E833
:1003DC0097DF292F95DF8BDF08958FDF88DF0000F3
:1003EC0083DF29E88DDF292F8BDF81DF089585DFFF
:1003FC007EDF000079DF2CE883DF292F81DF77DFB8
:10040C0008957BDF74DF00006FDF23E879DF2A2F8C
:10041C0077DF6DDF089571DF6ADF000065DF2AE8A2
:10042C006FDF2A2F20646CDF62DF089566DF5FDFE9
:10043C0000005ADF2DE864DF2A2F206461DF57DFCC
:10044C0008955BDF54DF00004FDF21E059DF2FEF11
:10045C0057DF8EB54CDF089550DF49DF000044DFD5
:10046C0022E04EDF2FEF4CDF9EB541DF089545DFD4
:10047C003EDF000039DF23E043DF2FEF41DFAEB575
:10048C0036DF089500E8DDDFE7DF34DF74E029DFD5
:10049C00000024DF272F34DF282F200F31DF21DF4E
:1004AC00829573E01BDF272F2BDF282F200F28DFEF
:1004BC0018DF72E013DF272F23DF292F200F20DF17
:1004CC0010DF929571E00ADF272F1ADF292F200FFA
:1004DC0017DF07DF08950EDF74E003DF0000FEDE98
:1004EC00272F0EDF282F0CDFFCDE829573E0F6DE63
:1004FC00272F06DF282F200F03DFF3DEF2DE0000AC
:10050C00EDDE22E0FDDE2FE7FBDEEBDE0000E6DEBB
:10051C0021E0F6DE2FE7F4DEE4DE0895EBDE72E098
:10052C00E0DE0000DBDE272FEBDE292FE9DED9DE53
:10053C00929571E0D3DE272FE3DE292FE1DED1DEA9
:10054C00D0DE0000CBDE24E0DBDE2FE7D9DEC9DE17
:10055C000000C4DE23E0D4DE2FE7D2DEC2DE089535
:00000001FF
