:020000020000FC
:0200000016C028
:0200040026C212
:10002C00E4C103E00093690001E00DBB01E00CBBEF
:10003C000FEF04B917EF1AB9C0E0D0E010EF17B901
:10004C0060E130E2E0E4F0E81EE214B989E593E205
:10005C00A3E03AD280E093E1A3E03BD282E093E1CB
:10006C00A3E03BD212D20AE712E10093890010936D
:10007C00880002E000936F0008E000938100789400
:10008C00036000938100CC27DD27002700C0BAD283
:10009C00C03011F4D03029F4309930D00027C0137F
:1000AC0004C031990E948A0000C0C13009F001C01F
:1000BC0042D0C23009F001C04DD0C33009F001C0AC
:1000CC0058D0D13009F001C068D0D23009F001C04D
:1000DC0072D0D33009F001C07CD0D43009F001C00B
:1000EC0089D0D53009F001C094D0D63009F001C0C8
:1000FC009ED0D73009F001C0A8D0C9CF3099FECF1F
:10010C00C3950E942A0208953199FECFD3950E947F
:10011C002A02089500270BB9089553D25DD267D2F5
:10012C0071D29DD091D110E0309B1395319B1395DA
:10013C00103099F308953099FECFECDF4DD2B9D23F
:10014C0083D13299B8D03399D2D0309BF7CF7CD1B0
:10015C00D5DF08953099FECFDDDF33D286D274D14E
:10016C003299B1D03399CBD0309BF7CF6DD1C6DF5C
:10017C0008953099FECFCEDFA1E003D238D21BB167
:10018C001A2B1BB96AD260D13299A5D03399BFD042
:10019C00309BF4CF59D1B2DF08953199FECFBADF3D
:1001AC001BD287D23299BED03399D7D0319BF9CF9D
:1001BC004BD1AADF08953199FECFACDF02D255D2D4
:1001CC003299B8D03399D1D0319BF9CF3DD19CDF46
:1001DC0008953199FECF9EDF0AD21BB11A271BB9A5
:1001EC003CD23299AFD03399C8D0319BF6CF2CD1B9
:1001FC008BDF08953199FECF8DDFEED15AD2329933
:10020C0091D03399AAD09FD1319BF8CF1DD17CDFEF
:10021C0008953199FECF7EDFD4D127D232998AD07E
:10022C003399A3D0319BF9CF0FD16EDF089531995B
:10023C00FECF70DFDCD111D2329984D033999DD0AE
:10024C00319BF9CF01D160DF08953199FECF319BFD
:10025C00FECFFAD0089529D008952AD00895A5B9D3
:10026C0008955C9A0895BBB1B627BBB908955C9A02
:10027C00BBB1B327BBB908955E9A0895BBB1BE2735
:10028C00BBB908955E9ABBB1B327BBB908955F9A09
:10029C000895BBB1BF27BBB908955F9ABBB1B32713
:1002AC00BBB90895DD27DBB90895CC27CBB90895E8
:1002BC00DD27DBB90895C8D0933211F06AD001C0A4
:1002CC0090E041D10895C0D0893511F06DD001C0B6
:1002DC0080E01BD10895B8D0B7D05A2F5F7057303B
:1002EC0011F0A39501C0A1E0AFD04BD10895ACD0D3
:1002FC00903011F064D001C093E225D10895A4D0C0
:10030C00803011F067D001C089E5FFD008959CD0F2
:10031C009BD05A2F5F70513011F0AA9501C0A7E005
:10032C0030D1089591D0933259F233D001C090E07E
:10033C0014D1089589D0893511F036D001C080E0F0
:10034C00EED0089581D080D05A2F5F70573011F0C5
:10035C00A39501C0A1E01FD1089576D0903011F083
:10036C002ED001C093E203D108956ED0803011F0ED
:10037C0031D001C089E5DDD0089566D065D05A2F03
:10038C005F70513011F0AA9501C0A7E00FD15CD07D
:10039C000895592F5F70593011F0939503C000E107
:1003AC00900F995051D00895582F5F70593011F01B
:1003BC00839503C000E1800F895046D00895592FD2
:1003CC005F70503011F09A9503C0905109E0900F76
:1003DC003BD00895582F5F70503011F08A9503C0B0
:1003EC00805109E0800F30D00895D13009F001C060
:1003FC0043DFD23009F001C041DFD33009F001C036
:10040C0041DFD43009F001C042DFD53009F001C022
:10041C0040DFD63009F001C040DFD73009F002C010
:10042C0047DF40DFC13009F001C01BDFC23009F0EB
:10043C0001C019DFC33009F001C019DFC43009F065
:10044C0001C033DF189518951AE02FEF4FEF4A953E
:10045C00F1F72A95E1F71A95D1F7089512E015B93D
:10046C00089516E015B9089514E015B9089516E02D
:10047C0015B9089510E51CBD089514E51CBD08952B
:10048C002EBD0DB507FFFDCF0895F4DFEADF0000A8
:10049C00E5DF2CE0F5DF21E0F3DFE3DF0000DEDF5A
:1004AC0029E0EEDF2FEFECDFDCDF0000D7DF2AE006
:1004BC00E7DF2FE0E5DFD5DF0000D0DF2BE0E0DF6A
:1004CC0023E0DEDFCEDF089520D03DD05AD009D016
:1004DC00089525D042D05FD008952BD048D066D057
:1004EC000895CBDFC4DF0000BFDF2EE8C9DF27E0B3
:1004FC00C7DFBDDF0895C1DFBADF0000B5DF2FE82D
:10050C00BFDF28ECBDDFB3DF0895B7DFB0DF00003D
:10051C00ABDF21E8B5DF282FB3DFA9DF0895ADDF0E
:10052C00A6DF0000A1DF28E8ABDF282FA9DF9FDFC3
:10053C000895A3DF9CDF000097DF2BE8A1DF282FB5
:10054C009FDF95DF089599DF92DF00008DDF22E8B1
:10055C0097DF292F95DF8BDF08958FDF88DF000071
:10056C0083DF29E88DDF292F8BDF81DF089585DF7D
:10057C007EDF000079DF2CE883DF292F81DF77DF36
:10058C0008957BDF74DF00006FDF23E879DF2A2F0B
:10059C0077DF6DDF089571DF6ADF000065DF2AE821
:1005AC006FDF2A2F20646CDF62DF089566DF5FDF68
:1005BC0000005ADF2DE864DF2A2F206461DF57DF4B
:1005CC0008955BDF54DF00004FDF21E059DF2FEF90
:1005DC0057DF8EB54CDF089550DF49DF000044DF54
:1005EC0022E04EDF2FEF4CDF9EB541DF089545DF53
:1005FC003EDF000039DF23E043DF2FEF41DFAEB5F4
:10060C0036DF089500E8DDDFE7DF34DF74E029DF53
:10061C00000024DF272F34DF282F200F31DF21DFCC
:10062C00829573E01BDF272F2BDF282F200F28DF6D
:10063C0018DF829572E012DF272F22DF292F200F7F
:10064C001FDF0FDF929571E009DF272F19DF292FAC
:10065C00200F16DF06DF929508950CDFFFDE2CE0ED
:10066C000FDF20E00DDFFDDE089504DF74E0F9DE1E
:10067C000000F4DE272F04DF282F02DFF2DE829544
:10068C0073E0ECDE272FFCDE282F200FF9DEE9DEED
:10069C008295E7DE0000E2DE22E0F2DE2FE7F0DEFC
:1006AC00E0DE0000DBDE21E0EBDE2FE7E9DED9DE69
:1006BC000895E0DE72E0D5DE0000D0DE272FE0DE0C
:1006CC00292FDEDECEDE929571E0C8DE272FD8DE34
:1006DC00292FD6DEC6DE9295C4DE0000BFDE24E0F4
:1006EC00CFDE2FE7CDDEBDDE0000B8DE23E0C8DEB6
:0806FC002FE7C6DEB6DE08950B
:00000001FF
