:020000020000FC
:0200000016C028
:02000400C4C175
:10002C0082C103E00093690001E00DBB01E00CBB51
:10003C000FEF04B917EF1AB9C0E0D0E010EF17B901
:10004C0060E130E2E0E4F0E81EE214B989E593E205
:10005C00A3E0D8D180E093E1A3E0D9D182E093E191
:10006C00A3E0D9D1B0D10AE712E100938900109333
:10007C00880002E000936F0008E000938100789400
:10008C00036000938100CC27DD27002700C058D2E5
:10009C00C03011F4D03029F4309930D00027C0137F
:1000AC0004C031990E948A0000C0C13009F001C01F
:1000BC0042D0C23009F001C04DD0C33009F001C0AC
:1000CC0058D0D13009F001C068D0D23009F001C04D
:1000DC006CD0D33009F001C070D0D43009F001C01D
:1000EC0074D0D53009F001C078D0D63009F001C0F9
:1000FC007CD0D73009F001C080D0C9CF3099FECF69
:10010C00C3950E94C80108953199FECFD3950E94E2
:10011C00C801089500270BB90895F1D1FBD105D280
:10012C000FD275D02FD110E0309B1395319B1395C6
:10013C00103099F308953099FECFECDFEBD16ED2ED
:10014C0021D1329990D03399A6D0309BF7CF1AD1C8
:10015C00D5DF08953099FECFDDDFD1D13BD212D15E
:10016C00329989D033999FD0309BF7CF0BD1C6DF12
:10017C0008953099FECFCEDFA1E0A1D1D6D11BB12D
:10018C001A271BB908D2FED032997DD0339993D05F
:10019C00309BF4CFF7D0B2DF08953199FECFBADFA0
:1001AC00319BFECFEFD0B0DF08953199FECFB2DF97
:1001BC00319BFECFE7D0A8DF08953199FECFAADF9F
:1001CC00319BFECFDFD0A0DF08953199FECFA2DFA7
:1001DC00319BFECFD7D098DF08953199FECF9ADFAF
:1001EC00319BFECFCFD090DF08953199FECF92DFB7
:1001FC00319BFECFC7D088DF08953199FECF319B5C
:10020C00FECFC0D0089529D008952AD00895A5B95D
:10021C0008955C9A0895BBB1B627BBB908955C9A52
:10022C00BBB1B327BBB908955E9A0895BBB1BE2785
:10023C00BBB908955E9ABBB1B327BBB908955F9A59
:10024C000895BBB1BF27BBB908955F9ABBB1B32763
:10025C00BBB90895DD27DBB90895CC27CBB9089538
:10026C00DD27DBB908958ED0933211F02CD001C06C
:10027C0090E007D1089586D0893511F030D001C0B7
:10028C0090E0E1D008957ED0A73011F0A39501C085
:10029C0091E015D1089576D0903011F02CD001C09A
:1002AC0093E2EFD008956ED0803011F030D001C0C1
:1002BC0089E5C9D0089566D0A13011F0AA9501C086
:1002CC0097E0FDD00895592F5F70593011F0939538
:1002DC0003C000E1900F995055D054D00895582F79
:1002EC005F70593011F0839503C000E1800F895085
:1002FC0049D048D00895592F5F70503011F09A951D
:10030C0003C0905109E0900F3DD03CD00895582F78
:10031C005F70503011F08A9503C0805109E0800F56
:10032C0031D030D00895D13009F001C07DDFD2300A
:10033C0009F001C07BDFD33009F001C07BDFD43082
:10034C0009F001C07CDFD53009F001C07ADFD6306E
:10035C0009F001C07ADFD73009F002C081DF7ADF03
:10036C00C13009F001C055DFC23009F001C053DFC4
:10037C00C33009F001C053DFC43009F001C06DDF98
:10038C00189518951AE02FEF4FEF4A95F1F72A952B
:10039C00E1F71A95D1F7089512E015B9089516E012
:1003AC0015B9089514E015B9089516E015B9089516
:1003BC0010E51CBD089514E51CBD08952EBD0DB5AA
:1003CC0007FFFDCF0895F4DFEADF0000E5DF2CE046
:1003DC00F5DF21E0F3DFE3DF0000DEDF29E0EEDF15
:1003EC002FEFECDFDCDF0000D7DF2AE0E7DF2FE0C8
:1003FC00E5DFD5DF0000D0DF2BE0E0DF23E0DEDF40
:10040C00CEDF089520D03DD05AD009D0089525D004
:10041C0042D05FD008952BD048D066D00895CBDF62
:10042C00C4DF0000BFDF2EE8C9DF27E0C7DFBDDF78
:10043C000895C1DFBADF0000B5DF2FE8BFDF28EC7D
:10044C00BDDFB3DF0895B7DFB0DF0000ABDF21E81D
:10045C00B5DF282FB3DFA9DF0895ADDFA6DF0000DD
:10046C00A1DF28E8ABDF282FA9DF9FDF0895A3DFEA
:10047C009CDF000097DF2BE8A1DF282F9FDF95DFA3
:10048C00089599DF92DF00008DDF22E897DF292F96
:10049C0095DF8BDF08958FDF88DF000083DF29E88D
:1004AC008DDF292F8BDF81DF089585DF7EDF000054
:1004BC0079DF2CE883DF292F81DF77DF08957BDF5D
:1004CC0074DF00006FDF23E879DF2A2F77DF6DDF21
:1004DC00089571DF6ADF000065DF2AE86FDF2A2FDD
:1004EC0020646CDF62DF089566DF5FDF00005ADF97
:1004FC002DE864DF2A2F206461DF57DF08955BDF6E
:10050C0054DF00004FDF21E059DF2FEF57DF8EB5AE
:10051C004CDF089550DF49DF000044DF22E04EDF5E
:10052C002FEF4CDF9EB541DF089545DF3EDF000025
:10053C0039DF23E043DF2FEF41DFAEB536DF08951F
:10054C0000E8DDDFE7DF34DF74E029DF000024DFC3
:10055C00272F34DF282F200F31DF21DF829573E026
:10056C001BDF272F2BDF282F200F28DF18DF82958A
:10057C0072E012DF272F22DF292F200F1FDF0FDF62
:10058C00929571E009DF272F19DF292F200F16DF35
:10059C0006DF9295089503DF0000FEDE24E00EDFF7
:1005AC002FE70CDFFCDE0000F7DE23E007DF2FE790
:1005BC0005DFF5DEF4DE0000EFDE22E0FFDE2FE7E4
:1005CC00FDDEEDDE0000E8DE21E0F8DE2FE7F6DEF2
:1005DC00E6DE0895EDDE74E0E2DE0000DDDE272FBE
:1005EC00EDDE282FEBDEDBDE829573E0D5DE272FE8
:1005FC00E5DE282F200FE2DED2DE8295D0DE000071
:10060C00CBDE22E0DBDE2FE7D9DEC9DE0000C4DE64
:10061C0021E0D4DE2FE7D2DEC2DE0895C9DE72E01F
:10062C00BEDE0000B9DE272FC9DE292FC7DEB7DEFC
:10063C00929571E0B1DE272FC1DE292FBFDEAFDE30
:10064C009295ADDE0000A8DE24E0B8DE2FE7B6DE22
:10065C00A6DE0000A1DE23E0B1DE2FE7AFDE9FDED9
:02066C000895EF
:00000001FF
